{
  "contractName": "Campaign",
  "abi": [
    {
      "inputs": [
        {
          "internalType": "uint256",
          "name": "minimum",
          "type": "uint256"
        },
        {
          "internalType": "address",
          "name": "creator",
          "type": "address"
        }
      ],
      "stateMutability": "nonpayable",
      "type": "constructor"
    },
    {
      "inputs": [
        {
          "internalType": "address",
          "name": "",
          "type": "address"
        }
      ],
      "name": "approvers",
      "outputs": [
        {
          "internalType": "bool",
          "name": "",
          "type": "bool"
        }
      ],
      "stateMutability": "view",
      "type": "function"
    },
    {
      "inputs": [],
      "name": "approversCount",
      "outputs": [
        {
          "internalType": "uint256",
          "name": "",
          "type": "uint256"
        }
      ],
      "stateMutability": "view",
      "type": "function"
    },
    {
      "inputs": [],
      "name": "manager",
      "outputs": [
        {
          "internalType": "address",
          "name": "",
          "type": "address"
        }
      ],
      "stateMutability": "view",
      "type": "function"
    },
    {
      "inputs": [],
      "name": "minimumContribution",
      "outputs": [
        {
          "internalType": "uint256",
          "name": "",
          "type": "uint256"
        }
      ],
      "stateMutability": "view",
      "type": "function"
    },
    {
      "inputs": [],
      "name": "numRequests",
      "outputs": [
        {
          "internalType": "uint256",
          "name": "",
          "type": "uint256"
        }
      ],
      "stateMutability": "view",
      "type": "function"
    },
    {
      "inputs": [
        {
          "internalType": "uint256",
          "name": "",
          "type": "uint256"
        }
      ],
      "name": "requests",
      "outputs": [
        {
          "internalType": "string",
          "name": "description",
          "type": "string"
        },
        {
          "internalType": "uint256",
          "name": "value",
          "type": "uint256"
        },
        {
          "internalType": "address",
          "name": "recipient",
          "type": "address"
        },
        {
          "internalType": "bool",
          "name": "complete",
          "type": "bool"
        },
        {
          "internalType": "uint256",
          "name": "approvalCount",
          "type": "uint256"
        },
        {
          "internalType": "bool",
          "name": "exists",
          "type": "bool"
        }
      ],
      "stateMutability": "view",
      "type": "function"
    },
    {
      "inputs": [],
      "name": "contribute",
      "outputs": [],
      "stateMutability": "payable",
      "type": "function"
    },
    {
      "inputs": [
        {
          "internalType": "string",
          "name": "description",
          "type": "string"
        },
        {
          "internalType": "uint256",
          "name": "value",
          "type": "uint256"
        },
        {
          "internalType": "address",
          "name": "recipient",
          "type": "address"
        }
      ],
      "name": "createRequest",
      "outputs": [],
      "stateMutability": "nonpayable",
      "type": "function"
    },
    {
      "inputs": [
        {
          "internalType": "uint256",
          "name": "index",
          "type": "uint256"
        }
      ],
      "name": "approveRequest",
      "outputs": [],
      "stateMutability": "nonpayable",
      "type": "function"
    },
    {
      "inputs": [
        {
          "internalType": "uint256",
          "name": "index",
          "type": "uint256"
        }
      ],
      "name": "finaliseRequest",
      "outputs": [],
      "stateMutability": "nonpayable",
      "type": "function"
    }
  ],
  "bytecode": "0x60806040523480156200001157600080fd5b50604051620014193803806200141983398181016040528101906200003791906200012b565b806000806101000a81548173ffffffffffffffffffffffffffffffffffffffff021916908373ffffffffffffffffffffffffffffffffffffffff16021790555081600181905550505062000172565b600080fd5b6000819050919050565b620000a0816200008b565b8114620000ac57600080fd5b50565b600081519050620000c08162000095565b92915050565b600073ffffffffffffffffffffffffffffffffffffffff82169050919050565b6000620000f382620000c6565b9050919050565b6200010581620000e6565b81146200011157600080fd5b50565b6000815190506200012581620000fa565b92915050565b6000806040838503121562000145576200014462000086565b5b60006200015585828601620000af565b9250506020620001688582860162000114565b9150509250929050565b61129780620001826000396000f3fe6080604052600436106100915760003560e01c8063937e09b111610059578063937e09b1146101945780639fb42b1f146101bf578063d7bb99ba146101ea578063d7d1bbdb146101f4578063e7b668b41461021d57610091565b80630a14439114610096578063481c6a75146100d357806381d12c58146100fe57806382fde093146101405780638a9cfd551461016b575b600080fd5b3480156100a257600080fd5b506100bd60048036038101906100b89190610a6f565b610246565b6040516100ca9190610ab7565b60405180910390f35b3480156100df57600080fd5b506100e8610266565b6040516100f59190610ae1565b60405180910390f35b34801561010a57600080fd5b5061012560048036038101906101209190610b32565b61028a565b60405161013796959493929190610c07565b60405180910390f35b34801561014c57600080fd5b50610155610388565b6040516101629190610c6f565b60405180910390f35b34801561017757600080fd5b50610192600480360381019061018d9190610dbf565b61038e565b005b3480156101a057600080fd5b506101a96104f8565b6040516101b69190610c6f565b60405180910390f35b3480156101cb57600080fd5b506101d46104fe565b6040516101e19190610c6f565b60405180910390f35b6101f2610504565b005b34801561020057600080fd5b5061021b60048036038101906102169190610b32565b610585565b005b34801561022957600080fd5b50610244600480360381019061023f9190610b32565b610780565b005b60036020528060005260406000206000915054906101000a900460ff1681565b60008054906101000a900473ffffffffffffffffffffffffffffffffffffffff1681565b60056020528060005260406000206000915090508060000180546102ad90610e5d565b80601f01602080910402602001604051908101604052809291908181526020018280546102d990610e5d565b80156103265780601f106102fb57610100808354040283529160200191610326565b820191906000526020600020905b81548152906001019060200180831161030957829003601f168201915b5050505050908060010154908060020160009054906101000a900473ffffffffffffffffffffffffffffffffffffffff16908060020160149054906101000a900460ff16908060030154908060040160009054906101000a900460ff16905086565b60025481565b60008054906101000a900473ffffffffffffffffffffffffffffffffffffffff1673ffffffffffffffffffffffffffffffffffffffff163373ffffffffffffffffffffffffffffffffffffffff161461041c576040517f08c379a000000000000000000000000000000000000000000000000000000000815260040161041390610edb565b60405180910390fd5b6000600560006004600081548092919061043590610f2a565b91905055815260200190815260200160002090508381600001908051906020019061046192919061095a565b50828160010181905550818160020160006101000a81548173ffffffffffffffffffffffffffffffffffffffff021916908373ffffffffffffffffffffffffffffffffffffffff16021790555060008160020160146101000a81548160ff0219169083151502179055506000816003018190555060018160040160006101000a81548160ff02191690831515021790555050505050565b60015481565b60045481565b60015434101561051357600080fd5b6001600360003373ffffffffffffffffffffffffffffffffffffffff1673ffffffffffffffffffffffffffffffffffffffff16815260200190815260200160002060006101000a81548160ff0219169083151502179055506002600081548092919061057e90610f2a565b9190505550565b6000600560008381526020019081526020016000209050600360003373ffffffffffffffffffffffffffffffffffffffff1673ffffffffffffffffffffffffffffffffffffffff16815260200190815260200160002060009054906101000a900460ff16610628576040517f08c379a000000000000000000000000000000000000000000000000000000000815260040161061f90610fe5565b60405180910390fd5b8060040160009054906101000a900460ff16610679576040517f08c379a000000000000000000000000000000000000000000000000000000000815260040161067090611051565b60405180910390fd5b8060050160003373ffffffffffffffffffffffffffffffffffffffff1673ffffffffffffffffffffffffffffffffffffffff16815260200190815260200160002060009054906101000a900460ff1615610708576040517f08c379a00000000000000000000000000000000000000000000000000000000081526004016106ff906110e3565b60405180910390fd5b60018160050160003373ffffffffffffffffffffffffffffffffffffffff1673ffffffffffffffffffffffffffffffffffffffff16815260200190815260200160002060006101000a81548160ff02191690831515021790555080600301600081548092919061077790610f2a565b91905055505050565b60008054906101000a900473ffffffffffffffffffffffffffffffffffffffff1673ffffffffffffffffffffffffffffffffffffffff163373ffffffffffffffffffffffffffffffffffffffff161461080e576040517f08c379a000000000000000000000000000000000000000000000000000000000815260040161080590610edb565b60405180910390fd5b6000600560008381526020019081526020016000209050600280546108339190611132565b816003015411610878576040517f08c379a000000000000000000000000000000000000000000000000000000000815260040161086f906111d5565b60405180910390fd5b8060020160149054906101000a900460ff16156108ca576040517f08c379a00000000000000000000000000000000000000000000000000000000081526004016108c190611241565b60405180910390fd5b8060020160009054906101000a900473ffffffffffffffffffffffffffffffffffffffff1673ffffffffffffffffffffffffffffffffffffffff166108fc82600101549081150290604051600060405180830381858888f19350505050158015610938573d6000803e3d6000fd5b5060018160020160146101000a81548160ff0219169083151502179055505050565b82805461096690610e5d565b90600052602060002090601f01602090048101928261098857600085556109cf565b82601f106109a157805160ff19168380011785556109cf565b828001600101855582156109cf579182015b828111156109ce5782518255916020019190600101906109b3565b5b5090506109dc91906109e0565b5090565b5b808211156109f95760008160009055506001016109e1565b5090565b6000604051905090565b600080fd5b600080fd5b600073ffffffffffffffffffffffffffffffffffffffff82169050919050565b6000610a3c82610a11565b9050919050565b610a4c81610a31565b8114610a5757600080fd5b50565b600081359050610a6981610a43565b92915050565b600060208284031215610a8557610a84610a07565b5b6000610a9384828501610a5a565b91505092915050565b60008115159050919050565b610ab181610a9c565b82525050565b6000602082019050610acc6000830184610aa8565b92915050565b610adb81610a31565b82525050565b6000602082019050610af66000830184610ad2565b92915050565b6000819050919050565b610b0f81610afc565b8114610b1a57600080fd5b50565b600081359050610b2c81610b06565b92915050565b600060208284031215610b4857610b47610a07565b5b6000610b5684828501610b1d565b91505092915050565b600081519050919050565b600082825260208201905092915050565b60005b83811015610b99578082015181840152602081019050610b7e565b83811115610ba8576000848401525b50505050565b6000601f19601f8301169050919050565b6000610bca82610b5f565b610bd48185610b6a565b9350610be4818560208601610b7b565b610bed81610bae565b840191505092915050565b610c0181610afc565b82525050565b600060c0820190508181036000830152610c218189610bbf565b9050610c306020830188610bf8565b610c3d6040830187610ad2565b610c4a6060830186610aa8565b610c576080830185610bf8565b610c6460a0830184610aa8565b979650505050505050565b6000602082019050610c846000830184610bf8565b92915050565b600080fd5b600080fd5b7f4e487b7100000000000000000000000000000000000000000000000000000000600052604160045260246000fd5b610ccc82610bae565b810181811067ffffffffffffffff82111715610ceb57610cea610c94565b5b80604052505050565b6000610cfe6109fd565b9050610d0a8282610cc3565b919050565b600067ffffffffffffffff821115610d2a57610d29610c94565b5b610d3382610bae565b9050602081019050919050565b82818337600083830152505050565b6000610d62610d5d84610d0f565b610cf4565b905082815260208101848484011115610d7e57610d7d610c8f565b5b610d89848285610d40565b509392505050565b600082601f830112610da657610da5610c8a565b5b8135610db6848260208601610d4f565b91505092915050565b600080600060608486031215610dd857610dd7610a07565b5b600084013567ffffffffffffffff811115610df657610df5610a0c565b5b610e0286828701610d91565b9350506020610e1386828701610b1d565b9250506040610e2486828701610a5a565b9150509250925092565b7f4e487b7100000000000000000000000000000000000000000000000000000000600052602260045260246000fd5b60006002820490506001821680610e7557607f821691505b60208210811415610e8957610e88610e2e565b5b50919050565b7f4f6e6c79206d616e616765722061636365737320616c6c6f7765640000000000600082015250565b6000610ec5601b83610b6a565b9150610ed082610e8f565b602082019050919050565b60006020820190508181036000830152610ef481610eb8565b9050919050565b7f4e487b7100000000000000000000000000000000000000000000000000000000600052601160045260246000fd5b6000610f3582610afc565b91507fffffffffffffffffffffffffffffffffffffffffffffffffffffffffffffffff821415610f6857610f67610efb565b5b600182019050919050565b7f52657175657374732063616e206f6e6c7920626520617070726f76656420627960008201527f20696e766573746f727300000000000000000000000000000000000000000000602082015250565b6000610fcf602a83610b6a565b9150610fda82610f73565b604082019050919050565b60006020820190508181036000830152610ffe81610fc2565b9050919050565b7f5265717565737420646f6573206e6f7420657869737400000000000000000000600082015250565b600061103b601683610b6a565b915061104682611005565b602082019050919050565b6000602082019050818103600083015261106a8161102e565b9050919050565b7f43757272656e7420696e766573746f722068617320616c726561647920766f7460008201527f6564206f6e207468697320726571756573740000000000000000000000000000602082015250565b60006110cd603283610b6a565b91506110d882611071565b604082019050919050565b600060208201905081810360008301526110fc816110c0565b9050919050565b7f4e487b7100000000000000000000000000000000000000000000000000000000600052601260045260246000fd5b600061113d82610afc565b915061114883610afc565b92508261115857611157611103565b5b828204905092915050565b7f4661696c656420746f2061636865697665206d616a6f7269747920696e20766f60008201527f7465730000000000000000000000000000000000000000000000000000000000602082015250565b60006111bf602383610b6a565b91506111ca82611163565b604082019050919050565b600060208201905081810360008301526111ee816111b2565b9050919050565b7f5265717565737420697320616c726561647920636f6d706c6574650000000000600082015250565b600061122b601b83610b6a565b9150611236826111f5565b602082019050919050565b6000602082019050818103600083015261125a8161121e565b905091905056fea2646970667358221220729346250a09f723b3ef5f4d0a8437db92bdb9aaa41a3dbe16a9fd077d767daf64736f6c634300080b0033",
  "immutableReferences": {},
  "source": "// SPDX-License-Identifier: GPL-3.0\r\n\r\npragma solidity >=0.7.0 <0.9.0;\r\n\r\ncontract CampaignFactory {\r\n\r\n    event CampaignCreated(address indexed creator, address createdCampaign, uint indexed timeCreated);\r\n\r\n    function createCampaign(uint minimumValue) public {\r\n        Campaign campaign = new Campaign(minimumValue, msg.sender);\r\n        address adr  = address(campaign);\r\n        emit CampaignCreated(msg.sender, adr, block.timestamp);\r\n    }\r\n}\r\n\r\n\r\ncontract Campaign {\r\n\r\n    struct Request {\r\n        string description;\r\n        uint value;\r\n        address recipient;\r\n        bool complete;\r\n        uint approvalCount;\r\n        bool exists;\r\n        mapping(address => bool) approvals;\r\n    }\r\n\r\n    address public manager;\r\n    uint public minimumContribution;\r\n\r\n    uint public approversCount;\r\n    mapping(address => bool) public approvers;\r\n\r\n    uint public numRequests;\r\n    mapping(uint => Request) public requests;\r\n\r\n    modifier restricted() {\r\n        require(msg.sender == manager, \"Only manager access allowed\");\r\n        _;\r\n    }\r\n\r\n    constructor(uint minimum, address creator) {\r\n        manager = creator;\r\n        minimumContribution = minimum;\r\n    }\r\n\r\n    function contribute() public payable {\r\n        require(msg.value >= minimumContribution);\r\n        approvers[msg.sender] = true;\r\n        approversCount++;\r\n    }\r\n\r\n    function createRequest(string memory description, uint value, address recipient)\r\n     public restricted {\r\n         Request storage r = requests[numRequests++];\r\n         r.description = description;\r\n         r.value = value;\r\n         r.recipient = recipient;\r\n         r.complete = false;\r\n         r.approvalCount = 0;\r\n         r.exists = true;\r\n    }\r\n\r\n    function approveRequest(uint index) public {\r\n        Request storage current = requests[index];\r\n        require(approvers[msg.sender], \"Requests can only be approved by investors\");\r\n        require(current.exists, \"Request does not exist\");\r\n        require(!current.approvals[msg.sender], \"Current investor has already voted on this request\");\r\n\r\n        current.approvals[msg.sender] = true;\r\n        current.approvalCount++;\r\n    }\r\n\r\n    function finaliseRequest(uint index) public restricted {\r\n        Request storage current = requests[index];\r\n        require(current.approvalCount > approversCount / 2, \"Failed to acheive majority in votes\");\r\n        require(!current.complete, \"Request is already complete\");\r\n\r\n        payable(current.recipient).transfer(current.value);\r\n        current.complete = true;\r\n    }\r\n}",
  "sourcePath": "D:\\Solidity\\projects\\final-project\\contracts\\Campaign.sol",
  "compiler": {
    "name": "solc",
    "version": "0.8.11+commit.d7f03943.Emscripten.clang"
  },
  "schemaVersion": "3.4.5",
  "updatedAt": "2022-04-20T03:42:24.448Z",
  "devdoc": {
    "kind": "dev",
    "methods": {},
    "version": 1
  },
  "userdoc": {
    "kind": "user",
    "methods": {},
    "version": 1
  }
}