{
  "contractName": "Campaign",
  "abi": [
    {
      "inputs": [
        {
          "internalType": "uint256",
          "name": "minimum",
          "type": "uint256"
        },
        {
          "internalType": "address",
          "name": "creator",
          "type": "address"
        }
      ],
      "stateMutability": "nonpayable",
      "type": "constructor"
    },
    {
      "inputs": [
        {
          "internalType": "address",
          "name": "",
          "type": "address"
        }
      ],
      "name": "approvers",
      "outputs": [
        {
          "internalType": "bool",
          "name": "",
          "type": "bool"
        }
      ],
      "stateMutability": "view",
      "type": "function"
    },
    {
      "inputs": [],
      "name": "approversCount",
      "outputs": [
        {
          "internalType": "uint256",
          "name": "",
          "type": "uint256"
        }
      ],
      "stateMutability": "view",
      "type": "function"
    },
    {
      "inputs": [],
      "name": "manager",
      "outputs": [
        {
          "internalType": "address",
          "name": "",
          "type": "address"
        }
      ],
      "stateMutability": "view",
      "type": "function"
    },
    {
      "inputs": [],
      "name": "minimumContribution",
      "outputs": [
        {
          "internalType": "uint256",
          "name": "",
          "type": "uint256"
        }
      ],
      "stateMutability": "view",
      "type": "function"
    },
    {
      "inputs": [],
      "name": "numRequests",
      "outputs": [
        {
          "internalType": "uint256",
          "name": "",
          "type": "uint256"
        }
      ],
      "stateMutability": "view",
      "type": "function"
    },
    {
      "inputs": [
        {
          "internalType": "uint256",
          "name": "",
          "type": "uint256"
        }
      ],
      "name": "requests",
      "outputs": [
        {
          "internalType": "string",
          "name": "description",
          "type": "string"
        },
        {
          "internalType": "uint256",
          "name": "value",
          "type": "uint256"
        },
        {
          "internalType": "address",
          "name": "recipient",
          "type": "address"
        },
        {
          "internalType": "bool",
          "name": "complete",
          "type": "bool"
        },
        {
          "internalType": "uint256",
          "name": "approvalCount",
          "type": "uint256"
        },
        {
          "internalType": "bool",
          "name": "exists",
          "type": "bool"
        }
      ],
      "stateMutability": "view",
      "type": "function"
    },
    {
      "inputs": [],
      "name": "contribute",
      "outputs": [],
      "stateMutability": "payable",
      "type": "function"
    },
    {
      "inputs": [
        {
          "internalType": "string",
          "name": "description",
          "type": "string"
        },
        {
          "internalType": "uint256",
          "name": "value",
          "type": "uint256"
        },
        {
          "internalType": "address",
          "name": "recipient",
          "type": "address"
        }
      ],
      "name": "createRequest",
      "outputs": [],
      "stateMutability": "nonpayable",
      "type": "function"
    },
    {
      "inputs": [
        {
          "internalType": "uint256",
          "name": "index",
          "type": "uint256"
        }
      ],
      "name": "approveRequest",
      "outputs": [],
      "stateMutability": "nonpayable",
      "type": "function"
    },
    {
      "inputs": [
        {
          "internalType": "uint256",
          "name": "index",
          "type": "uint256"
        }
      ],
      "name": "finaliseRequest",
      "outputs": [],
      "stateMutability": "nonpayable",
      "type": "function"
    }
  ],
  "bytecode": "0x60806040523480156200001157600080fd5b5060405162000fa538038062000fa583398181016040528101906200003791906200012b565b806000806101000a81548173ffffffffffffffffffffffffffffffffffffffff021916908373ffffffffffffffffffffffffffffffffffffffff16021790555081600181905550505062000172565b600080fd5b6000819050919050565b620000a0816200008b565b8114620000ac57600080fd5b50565b600081519050620000c08162000095565b92915050565b600073ffffffffffffffffffffffffffffffffffffffff82169050919050565b6000620000f382620000c6565b9050919050565b6200010581620000e6565b81146200011157600080fd5b50565b6000815190506200012581620000fa565b92915050565b6000806040838503121562000145576200014462000086565b5b60006200015585828601620000af565b9250506020620001688582860162000114565b9150509250929050565b610e2380620001826000396000f3fe6080604052600436106100915760003560e01c8063937e09b111610059578063937e09b1146101945780639fb42b1f146101bf578063d7bb99ba146101ea578063d7d1bbdb146101f4578063e7b668b41461021d57610091565b80630a14439114610096578063481c6a75146100d357806381d12c58146100fe57806382fde093146101405780638a9cfd551461016b575b600080fd5b3480156100a257600080fd5b506100bd60048036038101906100b891906108f5565b610246565b6040516100ca919061093d565b60405180910390f35b3480156100df57600080fd5b506100e8610266565b6040516100f59190610967565b60405180910390f35b34801561010a57600080fd5b50610125600480360381019061012091906109b8565b61028a565b60405161013796959493929190610a8d565b60405180910390f35b34801561014c57600080fd5b50610155610388565b6040516101629190610af5565b60405180910390f35b34801561017757600080fd5b50610192600480360381019061018d9190610c45565b61038e565b005b3480156101a057600080fd5b506101a96104c2565b6040516101b69190610af5565b60405180910390f35b3480156101cb57600080fd5b506101d46104c8565b6040516101e19190610af5565b60405180910390f35b6101f26104ce565b005b34801561020057600080fd5b5061021b600480360381019061021691906109b8565b61054f565b005b34801561022957600080fd5b50610244600480360381019061023f91906109b8565b6106a8565b005b60036020528060005260406000206000915054906101000a900460ff1681565b60008054906101000a900473ffffffffffffffffffffffffffffffffffffffff1681565b60056020528060005260406000206000915090508060000180546102ad90610ce3565b80601f01602080910402602001604051908101604052809291908181526020018280546102d990610ce3565b80156103265780601f106102fb57610100808354040283529160200191610326565b820191906000526020600020905b81548152906001019060200180831161030957829003601f168201915b5050505050908060010154908060020160009054906101000a900473ffffffffffffffffffffffffffffffffffffffff16908060020160149054906101000a900460ff16908060030154908060040160009054906101000a900460ff16905086565b60025481565b60008054906101000a900473ffffffffffffffffffffffffffffffffffffffff1673ffffffffffffffffffffffffffffffffffffffff163373ffffffffffffffffffffffffffffffffffffffff16146103e657600080fd5b600060056000600460008154809291906103ff90610d44565b91905055815260200190815260200160002090508381600001908051906020019061042b9291906107e0565b50828160010181905550818160020160006101000a81548173ffffffffffffffffffffffffffffffffffffffff021916908373ffffffffffffffffffffffffffffffffffffffff16021790555060008160020160146101000a81548160ff0219169083151502179055506000816003018190555060018160040160006101000a81548160ff02191690831515021790555050505050565b60015481565b60045481565b6001543410156104dd57600080fd5b6001600360003373ffffffffffffffffffffffffffffffffffffffff1673ffffffffffffffffffffffffffffffffffffffff16815260200190815260200160002060006101000a81548160ff0219169083151502179055506002600081548092919061054890610d44565b9190505550565b6000600560008381526020019081526020016000209050600360003373ffffffffffffffffffffffffffffffffffffffff1673ffffffffffffffffffffffffffffffffffffffff16815260200190815260200160002060009054906101000a900460ff166105bc57600080fd5b8060040160009054906101000a900460ff166105d757600080fd5b8060050160003373ffffffffffffffffffffffffffffffffffffffff1673ffffffffffffffffffffffffffffffffffffffff16815260200190815260200160002060009054906101000a900460ff161561063057600080fd5b60018160050160003373ffffffffffffffffffffffffffffffffffffffff1673ffffffffffffffffffffffffffffffffffffffff16815260200190815260200160002060006101000a81548160ff02191690831515021790555080600301600081548092919061069f90610d44565b91905055505050565b60008054906101000a900473ffffffffffffffffffffffffffffffffffffffff1673ffffffffffffffffffffffffffffffffffffffff163373ffffffffffffffffffffffffffffffffffffffff161461070057600080fd5b6000600560008381526020019081526020016000209050600280546107259190610dbc565b81600301541161073457600080fd5b8060020160149054906101000a900460ff161561075057600080fd5b8060020160009054906101000a900473ffffffffffffffffffffffffffffffffffffffff1673ffffffffffffffffffffffffffffffffffffffff166108fc82600101549081150290604051600060405180830381858888f193505050501580156107be573d6000803e3d6000fd5b5060018160020160146101000a81548160ff0219169083151502179055505050565b8280546107ec90610ce3565b90600052602060002090601f01602090048101928261080e5760008555610855565b82601f1061082757805160ff1916838001178555610855565b82800160010185558215610855579182015b82811115610854578251825591602001919060010190610839565b5b5090506108629190610866565b5090565b5b8082111561087f576000816000905550600101610867565b5090565b6000604051905090565b600080fd5b600080fd5b600073ffffffffffffffffffffffffffffffffffffffff82169050919050565b60006108c282610897565b9050919050565b6108d2816108b7565b81146108dd57600080fd5b50565b6000813590506108ef816108c9565b92915050565b60006020828403121561090b5761090a61088d565b5b6000610919848285016108e0565b91505092915050565b60008115159050919050565b61093781610922565b82525050565b6000602082019050610952600083018461092e565b92915050565b610961816108b7565b82525050565b600060208201905061097c6000830184610958565b92915050565b6000819050919050565b61099581610982565b81146109a057600080fd5b50565b6000813590506109b28161098c565b92915050565b6000602082840312156109ce576109cd61088d565b5b60006109dc848285016109a3565b91505092915050565b600081519050919050565b600082825260208201905092915050565b60005b83811015610a1f578082015181840152602081019050610a04565b83811115610a2e576000848401525b50505050565b6000601f19601f8301169050919050565b6000610a50826109e5565b610a5a81856109f0565b9350610a6a818560208601610a01565b610a7381610a34565b840191505092915050565b610a8781610982565b82525050565b600060c0820190508181036000830152610aa78189610a45565b9050610ab66020830188610a7e565b610ac36040830187610958565b610ad0606083018661092e565b610add6080830185610a7e565b610aea60a083018461092e565b979650505050505050565b6000602082019050610b0a6000830184610a7e565b92915050565b600080fd5b600080fd5b7f4e487b7100000000000000000000000000000000000000000000000000000000600052604160045260246000fd5b610b5282610a34565b810181811067ffffffffffffffff82111715610b7157610b70610b1a565b5b80604052505050565b6000610b84610883565b9050610b908282610b49565b919050565b600067ffffffffffffffff821115610bb057610baf610b1a565b5b610bb982610a34565b9050602081019050919050565b82818337600083830152505050565b6000610be8610be384610b95565b610b7a565b905082815260208101848484011115610c0457610c03610b15565b5b610c0f848285610bc6565b509392505050565b600082601f830112610c2c57610c2b610b10565b5b8135610c3c848260208601610bd5565b91505092915050565b600080600060608486031215610c5e57610c5d61088d565b5b600084013567ffffffffffffffff811115610c7c57610c7b610892565b5b610c8886828701610c17565b9350506020610c99868287016109a3565b9250506040610caa868287016108e0565b9150509250925092565b7f4e487b7100000000000000000000000000000000000000000000000000000000600052602260045260246000fd5b60006002820490506001821680610cfb57607f821691505b60208210811415610d0f57610d0e610cb4565b5b50919050565b7f4e487b7100000000000000000000000000000000000000000000000000000000600052601160045260246000fd5b6000610d4f82610982565b91507fffffffffffffffffffffffffffffffffffffffffffffffffffffffffffffffff821415610d8257610d81610d15565b5b600182019050919050565b7f4e487b7100000000000000000000000000000000000000000000000000000000600052601260045260246000fd5b6000610dc782610982565b9150610dd283610982565b925082610de257610de1610d8d565b5b82820490509291505056fea264697066735822122047ce309a7f778bf9ed2c1c39bff9b95a809450f067be68ac8f526823fe1d859764736f6c634300080b0033",
  "immutableReferences": {},
  "source": "// SPDX-License-Identifier: GPL-3.0\r\n\r\npragma solidity >=0.7.0 <0.9.0;\r\n\r\ncontract CampaignFactory {\r\n\r\n    event CampaignCreated(address indexed creator, address createdCampaign, uint indexed timeCreated);\r\n\r\n    function createCampaign(uint minimumValue) public {\r\n        Campaign campaign = new Campaign(minimumValue, msg.sender);\r\n        address adr  = address(campaign);\r\n        emit CampaignCreated(msg.sender, adr, block.timestamp);\r\n    }\r\n}\r\n\r\n\r\ncontract Campaign {\r\n\r\n    struct Request {\r\n        string description;\r\n        uint value;\r\n        address recipient;\r\n        bool complete;\r\n        uint approvalCount;\r\n        bool exists;\r\n        mapping(address => bool) approvals;\r\n    }\r\n\r\n    address public manager;\r\n    uint public minimumContribution;\r\n\r\n    uint public approversCount;\r\n    mapping(address => bool) public approvers;\r\n\r\n    uint public numRequests;\r\n    mapping(uint => Request) public requests;\r\n\r\n    modifier restricted() {\r\n        require(msg.sender == manager);\r\n        _;\r\n    }\r\n\r\n    constructor(uint minimum, address creator) {\r\n        manager = creator;\r\n        minimumContribution = minimum;\r\n    }\r\n\r\n    function contribute() public payable {\r\n        require(msg.value >= minimumContribution);\r\n        approvers[msg.sender] = true;\r\n        approversCount++;\r\n    }\r\n\r\n    function createRequest(string memory description, uint value, address recipient)\r\n     public restricted {\r\n         Request storage r = requests[numRequests++];\r\n         r.description = description;\r\n         r.value = value;\r\n         r.recipient = recipient;\r\n         r.complete = false;\r\n         r.approvalCount = 0;\r\n         r.exists = true;\r\n    }\r\n\r\n    function approveRequest(uint index) public {\r\n        Request storage current = requests[index];\r\n        require(approvers[msg.sender]);\r\n        require(current.exists);\r\n        require(!current.approvals[msg.sender]);\r\n\r\n        current.approvals[msg.sender] = true;\r\n        current.approvalCount++;\r\n    }\r\n\r\n    function finaliseRequest(uint index) public restricted {\r\n        Request storage current = requests[index];\r\n        require(current.approvalCount > approversCount / 2);\r\n        require(!current.complete);\r\n\r\n        payable(current.recipient).transfer(current.value);\r\n        current.complete = true;\r\n    }\r\n}",
  "sourcePath": "D:\\Solidity\\projects\\final-project\\contracts\\Campaign.sol",
  "compiler": {
    "name": "solc",
    "version": "0.8.11+commit.d7f03943.Emscripten.clang"
  },
  "schemaVersion": "3.4.5",
  "updatedAt": "2022-03-11T06:25:46.341Z",
  "devdoc": {
    "kind": "dev",
    "methods": {},
    "version": 1
  },
  "userdoc": {
    "kind": "user",
    "methods": {},
    "version": 1
  }
}